:020000040800F2
:1000000000320020C5010008BF510008014B000864
:10001000BD510008650C0008257F000800000000A5
:10002000000000000000000000000000215F000848
:10003000EB1200080000000077520008235F000860
:10004000DF010008DF010008DF010008DF01000810
:10005000DF010008DF010008DF010008DF01000800
:10006000DF010008DF010008DF010008DF010008F0
:10007000DF010008DF010008DF010008DF010008E0
:10008000DF010008DF010008DF010008DF010008D0
:10009000C50F0008D10F0008DF010008DF010008CC
:1000A000DF010008DF010008DF010008DF010008B0
:1000B000DF010008DF010008DF010008DF010008A0
:1000C000DF010008DF010008DF010008DF01000890
:1000D000DF01000879670008DF010008DF01000880
:1000E000DF010008DF010008DF010008DF01000870
:1000F000DF010008DF010008DF010008DF01000860
:10010000DF010008B9520008DF010008DF01000824
:10011000DF010008DF010008DF010008DF0100083F
:10012000DF010008F911000805120008DF010008CE
:10013000DF010008DF010008DF010008DF0100081F
:10014000DD0F0008E90F0008DF010008E151000899
:10015000DF01000811120008DF01000891670008A4
:10016000DF010008DF010008DF010008DF010008EF
:10017000DF010008DF010008DF01000800000000C7
:10018000DF010008DF010008DF010008DF010008CF
:10019000DF010008DF010008DF010008DF010008BF
:1001A0000000000000000000DF010008DFF810D0B0
:1001B00000F0CAFA00480047B18C0008AFF3008095
:1001C000003200200648804706480047FEE7FEE769
:1001D000FEE7FEE7FEE7FEE7FEE7FEE7FEE7FEE7F7
:1001E000F15F0008AD0100082DE9F05F0546002031
:1001F00092469B4688460646814640241BE0284698
:1002000041464746224600F004F953465A46C01A72
:10021000914110D311461846224600F0EBF82D1AF2
:1002200067EB01084F4622460120002100F0E2F86A
:1002300017EB00094E41201EA4F10104DFDC484603
:1002400031462A464346BDE8F09F40EA01039B073A
:1002500003D009E008C9121F08C0042AFAD203E03B
:1002600011F8013B00F8013B521EF9D27047D2B29F
:1002700001E000F8012B491EFBD270470022F6E78F
:1002800010B513460A4604461946FFF7F0FF20460C
:1002900010BD2DE9FE4F81EA030404F0004421F073
:1002A000004100944FF0000B23F0004350EA01049A
:1002B0005ED052EA03045BD0C3F30A54C1F30A557B
:1002C0002C44A4F2F3340194A0FB0254C1F31301B3
:1002D00041F48011C3F3130343F4801301FB024480
:1002E00000FB034E840A970A44EA815447EA835785
:1002F000A4FB076802958D0A05FB07854FEA932C3E
:1003000004FB0C542705029D4FEA065847EA1637AE
:10031000B5EB08056EEB070C870E920E47EA8117C6
:1003200042EA8312A7FB0201B6EB0B0164EB000467
:100330002B0D43EA0C335E1844EB1C50DA46514651
:10034000E7FB0201C5F313044FEA0B3343EA1453EE
:100350004FEA0432019C43EA0603A4F10C04029420
:10036000009CCDE900B400F073F803B0BDE8F08F55
:1003700000200146F9E70EB5C10F80EAE07008449D
:10038000CA07002140F233438DE80E000A460B46AF
:1003900000F05EF803B000BD30B5041E71F100043A
:1003A00004DB4FF00044404264EB0101141E73F182
:1003B000000405DB1C464FF00043524263EB04038C
:1003C000994208BF904230BD30B50B46014600202F
:1003D0002022012409E021FA02F59D4205D303FA07
:1003E00002F5491B04FA02F52844151EA2F1010288
:1003F000F1DC30BD202A04DB203A00FA02F10020B3
:1004000070479140C2F1200320FA03F31943904052
:100410007047202A04DB203A21FA02F000217047BD
:1004200021FA02F3D040C2F120029140084319465C
:10043000704710B5141E73F1000408DA401C41F136
:10044000000192185B411A4301D120F0010010BD58
:100450002DE9F04D92469B4611B1B1FA81F202E0CE
:10046000B0FA80F220329046FFF7C4FF04460F46F0
:1004700040EA0A0041EA0B0153465A46084313D0AA
:10048000114653EA010019D0C8F140025046FFF767
:10049000C0FF05460E46504659464246FFF7AAFFA2
:1004A000084305D0012004E020463946BDE8F08D20
:1004B0000020054346EAE0762C4337430A9863055B
:1004C000E40AA0EB08000022FD0A44EA47540A307F
:1004D00002D500200146E9E7010510196941DDE96F
:1004E000084500196941BDE8F04DA2E72DE9FE4F2E
:1004F000804681EA0300C00F0C46009021F00041C5
:1005000023F00045B8EB0200A94105D24046214640
:1005100090461C460B46024623F00040104347D04D
:10052000270DC7F30A00C3F30A510290401A019045
:1005300040286BDAC3F3130040F4801B0098924606
:1005400020B10023D2EB030A63EB0B0B0198594651
:10055000C0F140025046FFF74DFF06460D4650469B
:100560005946019A00F002F910EB0800614100249D
:1005700087EA115284EAE7731A4340D0009A62B3C3
:10058000019A012A4FEA075215DC001B61EB0201B8
:100590004FF0004202EA0752CDE90042001C41F54B
:1005A000801132462B46FFF753FF03B0BDE8F08FB2
:1005B00040462146F9E7001B61EB0201001C41F5B2
:1005C000801300185B412018A2F5001747EB0301C8
:1005D00040EAD570B6196D4111E06D084FEA360654
:1005E00045EAC0754FEA0752001B61EB0201001C8F
:1005F00041F5801149084FEA300000195141324657
:100600002B4603B0BDE8F04FFFF713BF009801225F
:1006100040000023D0EB020263EBE0730098214618
:100620004FEAE074B8EB000061EB0401E9E783F006
:1006300000435BE781F0004158E72DE9F04D81EA86
:10064000030404F0004B21F0004514464FF0000A6B
:1006500023F0004150EA050220D054EA01021DD0E7
:10066000C5F30A570246C5F31303C1F31300C1F3E0
:100670000A5640F4801543F48013A7EB0608101BBC
:10068000D64608F2FD3873EB050002D308F10108E5
:1006900001E092185B41B8F1000F03DA0020014637
:1006A000BDE8F08D00204FF48011064684460EE030
:1006B000171B73EB050705D3121B63EB05030643FA
:1006C0004CEA010C49084FEA300092185B4150EAAD
:1006D0000107EDD152EA030012D082EA040083EA56
:1006E0000501084305D0101BAB4106D201220023AF
:1006F00006E000224FF0004302E06FF001025310C9
:100700001AEB06004CEB085110EB0A0041EB0B0111
:10071000BDE8F04DFFF78DBEC1F30A52C1F31301DE
:1007200040F2FF3341F480119A4202DA0020014680
:10073000704740F233439A42A2F2334202DC524203
:10074000FFF767BEFFF756BE064C074D06E0E068B0
:1007500040F0010394E8070098471034AC42F6D308
:10076000FFF728FDEC9D00080C9E0008202A06DB00
:10077000CB17203A41FA02F043EAE07306E041FA6F
:1007800002F3D040C2F1200291400843194670475D
:1007900070B58C1810F8015B15F0070301D110F843
:1007A000013B2A1106D110F8012B03E010F8016B70
:1007B00001F8016B5B1EF9D12B0705D40023521EF3
:1007C0000DD401F8013BFAE710F8013BCB1A921C5B
:1007D00003E013F8015B01F8015B521EF9D5A14259
:1007E000D8D3002070BD000049494A6822F4403245
:1007F0004A604A6843681A434A6001684A6822F4BA
:1008000080724A6001684A68036942EA03224A60CA
:1008100001684A6822F040724A6001684A68836849
:100820001A434A6001688A6822F400628A6001689B
:100830008A68C3681A438A60816A6FF07062D14225
:1008400014D001688A6822F070628A6001688A6840
:10085000836A1A438A6001688A6822F040528A607B
:1008600001688A68C36A1A438A6009E001688A6875
:1008700022F070628A6001688A6822F040528A60C1
:1008800001688A6822F002028A6001688A688369C6
:1008900042EA43028A60016A89B101684A6842F407
:1008A00000624A6001684A6822F460424A60016856
:1008B0004B68426A521E43EA42324A6004E00168D1
:1008C0004A6822F400624A600168CA6A22F470022F
:1008D000CA620168CB6A828B521E43EA0252CA6224
:1008E00001688A6822F400728A6001688A68036B72
:1008F00042EA43228A6001688A6822F480628A6040
:1009000001688A68406942EA802088607047000078
:100910000023014030B589B005460C4624216846C5
:10092000FFF7ACFC0CB1042C06D9242269462846FA
:10093000FFF78BFC09B030BD641EE1B2174801EB34
:10094000C10130F82120ADF8002000EB810148887A
:10095000ADF802008888ADF8040088680290C86885
:100960000390088AADF81000488AADF81200087D9F
:100970008DF81400487D8DF8150088690690C869C7
:100980000790088CADF82000488CADF82200242296
:1009900069462846FFF759FCCCE70000442B0020AD
:1009A00010B50024204600F05FF9204600F0EEF973
:1009B000641CE4B2042CF5D3094C084860600020A4
:1009C000207001F0B9FDA06001F0B6FDE0600020EC
:1009D00008F08AFBBDE8104000F066BA540500201C
:1009E000CC00002010B506480078401CC4B2032C8F
:1009F00000D30024204600F089F8204610BD0000F6
:100A0000CC0000202DE9F0411546002903D015B196
:100A10008A682AB902E00020BDE8F081CA680AB1FC
:100A20000020F9E70A68A2F20122042A01D300207B
:100A3000F2E70969072901D20120EDE72249486060
:100A4000D4B26978287800F089F9204F04EBC40605
:100A500007EB8604A16961B137F82610411A37F80F
:100A600026206280B1F5805F08DDA168491EA16083
:100A70000AE0A08060800021A16005E011F5805FA0
:100A800002DAA168491CA16027F82600E978A87855
:100A900000F05FF920826979287900F05AF96082C4
:100AA000A879207537F82600A16800EB4130A188AD
:100AB000401AE06001F040FDE06101206075A0692E
:100AC000401CA0610120A7E7CC000020442B00209F
:100AD00070B50D46002815D0042813D8401EC4B2A6
:100AE0004FF4FA51284600F029F9074A04EBC401F3
:100AF00002EB81010884002D04D12046BDE870403E
:100B000000F044B970BD0000442B0020032800D33E
:100B1000002004490870044931F910100120FFF742
:100B2000D7BF0000CC000020C89D00082DE9FC5F65
:100B300001F002FD06464FF0000ACDF800A0CDF806
:100B400004A0DFF87890D9F80810701A0A2824D386
:100B5000C9F808600024DFF868B0E84604EBC40078
:100B60000BEB8005B5F920703146204600F0FAF80D
:100B70006875EFB1E0B1B5F910203946204600F0B4
:100B80004BF928F8140038F814006884641CE4B2A7
:100B9000042CE3D3684600F007F9D9F80C00301AAA
:100BA000C82803D3C9F80C6000F07EF9BDE8FC9FAB
:100BB00028F814A0204600F0E9F8E4E7CC00002073
:100BC000442B00200146014802F028BEEC0500201D
:100BD00010B5044802F034FE042801D0012010BDF5
:100BE000002010BDEC05002010B500F015F801281C
:100BF00001D0012010BD074802F004FF044634B9BB
:100C00004FF40061034802F0C8FC00B10124204603
:100C100010BD0000EC05002008B5012000909DF8F3
:100C2000000008BD38B50024009313460A4601466B
:100C3000034802F077FF00B10124204638BD0000D0
:100C4000EC05002038B50024009313460A460146FF
:100C5000034803F063F800B10124204638BD0000CA
:100C6000EC050020FEE700000A4A00EBC00000216E
:100C700022F8201002EB8000418081808160C160F9
:100C800001824182017541758161C16101844184A4
:100C900070470000442B002000B587B000210A48AF
:100CA000026842F001020260006800F00100019059
:100CB00001200290039102200490059102A90348AB
:100CC00001F03CFB07B000BD30380240000002409C
:100CD00010B501210D4801F021FC044601F02CFC67
:100CE0000B494A78944201D04C7048604A68801A97
:100CF000322809D30878844206D00C70012C03D125
:100D0000BDE81040FFF76EBE10BD000000000240BD
:100D100000000020D0ED000AF4EEC00AF1EE10FA57
:100D200002DD80ED000A7047B1EE400AF4EEC00A21
:100D3000F1EE10FAF7D280ED000A7047024608463D
:100D4000824203DC4042824201DA00B27047104620
:100D5000704710B500F002F800B210BD41EA002063
:100D60007047000000EBC002074800EB8200C26938
:100D70008069002804D0881A642803D801207047AD
:100D80000020704700207047442B002005499FED4C
:100D9000040A01EBC00080ED000A80ED010A7047F3
:100DA00000000000D42B00202DE9F0418AB0054658
:100DB000184F7868002829D000F051FD40B34FF457
:100DC000007004900020059006900790082108917B
:100DD0008DF82400002402AE42F2107835F9140098
:100DE0004146FFF7ABFF010A06F8141006EB440179
:100DF0004870641CE4B2042CF0D301AB02AA04A92D
:100E0000786800F0A5FB0AB0BDE8F0810120FAE7A0
:100E10000220F8E7CC00002010B52DED028B82B047
:100E20001C4B03EBC00400EE101AF8EEC00A00EEF3
:100E3000102AB8EEC00A30EEC08A94ED000A30EEF7
:100E4000080A84ED000A9FED140A2046FFF762FFAE
:100E5000B7EE080AD4ED000A28EE000A9FED0F1A3B
:100E600000EE810ADFED0E0A30EE200A8DED010A58
:100E700084ED018A9FED0B0A01A8FFF74BFF9DED62
:100E8000010A02B0BDEEC00ABDEC028B10EE100AE2
:100E900000B210BDD42B002000409C46CDCCCC3DF0
:100EA0000000000000401C4600B591B001216846DA
:100EB000FFF730FD002124A2084608F05DFA26481D
:100EC000A0F11001097850F8212024A109A807F009
:100ED0002BF809AA0021012008F04EFABDF92020C4
:100EE00023A109A807F020F809AA0021022008F090
:100EF00043FABDF9102023A109A807F015F809AAA3
:100F00000021032008F038FABDF9222022A109A807
:100F100007F00AF809AA0021042008F02DFA9DF82C
:100F2000150008B120A300E020A39DF8142020A103
:100F300009A806F0F9FF09AA0021052008F01CFA0B
:100F400008F0AAF911B000BD43363230204D3335D8
:100F500030382043414E0000DC0000204C657665AF
:100F60006C3A252D347320202020202020200000E2
:100F70005461723A2535642072706D202020202043
:100F8000000000004664623A2535642072706D20CE
:100F900020202020000000004375723A253664208E
:100FA00020202020202020004F4E20004F464600C9
:100FB000546D703A25337520257320202020202081
:100FC00000000000014800F062BC00005405002051
:100FD000014800F05CBC000054050020014800F00E
:100FE00056BC00007C050020014800F050BC000009
:100FF0007C05002010B5042806DD202804D1034814
:10100000FFF723F900F02EF8002010BD2800002083
:101010000020704710B500220449054805F0A8FCDF
:101020000449034805F09EFC002010BD94100020E8
:10103000700600209408002070B505460C4629462D
:10104000064805F08FFC054805F06BFC2188044834
:101050008AB2294603F00CFD002070BD7006002006
:101060000403002070B5584C5849606BCD140068DB
:10107000884201D120213BE05549884201D12021FD
:1010800036E052496031884201D1202130E0504998
:101090006031884201D120212AE04C491831884230
:1010A00001D1294624E04A491831884201D1294614
:1010B0001EE046497831884201D1294618E044496A
:1010C0007831884201D1294612E0404A4FF400119C
:1010D000303290420CD03E4A3032904208D03B4AE7
:1010E0009032904204D03A4A9032904200D0890126
:1010F000026822F001020260606B354A00684832E3
:10110000904203D93248001F016010E02F4AA832F4
:10111000904203D92E480838016008E02B4B2B4A37
:101120004833103A984201D9D16000E091602648D6
:1011300003F0AEFA20B14FF4B27126A006F0F3FE30
:101140002B4A0020117929B3022925D0E06051797A
:1011500031B3012926D0022928D0206191790729AD
:1011600028D0082928D0A06011686160A0610C21F6
:101170006161E061144803F031FB20B140F2A51138
:1011800014A006F0D0FE2A46BDE8704019490E486A
:1011900003F064BCE060DAE74FF40051E160D6E7A9
:1011A0002061DBE74FF4C0612161D7E74FF4806134
:1011B0002161D3E7A060D7E7216919B14FF48051CD
:1011C000A160D1E7A060CFE70403002010600240D7
:1011D000106402402E2E2F436F72652F5372632FBF
:1011E000757362645F6364635F69662E6300000009
:1011F0002800002094180020014800F02DBE0000B7
:10120000A4030020014800F027BE00004403002092
:10121000014800F021BE0000040400200168CAB2A9
:10122000103A1823B2FBF3F2064B9B5CC3656FF3D5
:101230000901032A02D9091D816500E08165806DDD
:1012400070470000CE9D000810B5014600208A6A54
:101250008B694FF0C074002B0ED0B3F5005F1AD02D
:1012600062B3012A2AD0022A28D0032A03D1C96AEC
:10127000C90100D5012010BD1AB1012A06D0022AE9
:10128000F9D1C96AC901F6D5012010BDC96AA142C8
:10129000FBD1012010BD52B1012A0AD0022A06D08A
:1012A000032AF7D1C96AA142F4D1012010BD01205F
:1012B00010BDC96AC901FBD5012010BD012010BDB8
:1012C00030B50468256825F48025256004686360CE
:1012D0008368402B04D0036899600068C26030BD09
:1012E00003689A600068C16030BD7047002200F05A
:1012F00001B8000030B5044601200D4B5D7A002D89
:1013000014D1587A1D54587A03EB800044605C7AFB
:1013100003F108002254587A421C5A723030087087
:101320003A2048702F208870CD70002030BD00001A
:10133000F42B002078B50024009490F83C20012A7A
:1013400019D0012280F83C200A680725092A14D9FF
:101350000368DE680A3A02EB42029540AE43DE6063
:101360000A788B680A3A02EB420293400268D56819
:101370002B43D36011E0022078BD03681E6902EBA5
:1013800042029540AE431E610A788B6802EB42022E
:101390009340026815692B4313614A681F25072A89
:1013A00013D203685E6B521E02EB82029540AE437D
:1013B0005E630A8893B20A79521E02EB820293405E
:1013C0000268556B2B43536328E00D2A13D2036840
:1013D0001E6BD21F02EB82029540AE431E630A8849
:1013E00093B20A79D21F02EB820293400268156B16
:1013F0002B43136312E00368DE6A0D3A02EB8202AC
:101400009540AE43DE620A8893B20A790D3A02EB48
:10141000820293400268D56A2B43D362174A184B65
:1014200005689D4206D10D68122D03D1556845F41B
:101430008005556005689D421CD1124D0B68AB427A
:1014400001D0112B16D1536843F40003536009688F
:10145000A9420FD10C490D4A0968B1FBF2F101EB29
:1014600081014900009102E00099491E0091009914
:101470000029F9D180F83C40002078BD00230140CC
:1014800000200140120000100800002040420F0020
:1014900070B504460026002C03D0206C002510B146
:1014A00007E0012070BD656484F83C50204600F0E0
:1014B00019F8206CC00610D4206C20F4885040F03D
:1014C000020020642046FFF78FF96564206C20F04D
:1014D000020040F00100206400E0012684F83C5046
:1014E000304670BD00B587B000680C49884212D103
:1014F00000210B48026842F480720260006800F428
:10150000807001904020029003200390049102A972
:10151000044800F013FF07B000BD000000200140A8
:10152000443802400000024090F82020012A09D0EF
:1015300090F82020022A05D0416A41F480214162BE
:1015400001207047006842690A43426100207047E9
:10155000F0B590F82040012C09D090F82040022CE2
:1015600005D0416A41F4802141620120F0BD046848
:10157000A5686D0105D4A5682D0102D4A568ED000C
:1015800054D5A468C4F301640125A5401D608B688F
:101590004FF4C0759BB1CE6805EB041733434E681A
:1015A00043EAC6030668F3514FF4C273076803EBBE
:1015B00004130E69FE50097D012909D00DE00E8843
:1015C000CB6805EB041743EA46530668F351EBE793
:1015D0000168CE5846F48076CE501179D379567989
:1015E00041EA036193791B0443EA062319434FF44C
:1015F000C676036806EB041699511178D37841EA50
:101600000361937852781B0443EA022211434FF49A
:10161000C473026803EB0413D150006805EB041196
:10162000425842F0010242500020F0BD416A41F4AC
:10163000001141620120F0BD10B590F82020012A70
:1016400009D090F82020022A05D0416A41F4802177
:101650004162012010BD3B4800F50070026842F075
:1016600001020260026822F47C52026002684B6A46
:1016700042EA032202600B7D01229A40C369934330
:10168000C361A0F50070CB69B3B9D0F80C329343B5
:10169000C0F80C328C894B6864F31F434C6900EB33
:1016A000C404C4F840320C890B6864F31F434C69CE
:1016B00000EBC404C4F84432CB69012B16D1D0F836
:1016C0000C321343C0F80C320C884B6864F31F4390
:1016D0004C6900EBC404C4F840320C89CB6864F355
:1016E0001F434C6900EBC404C4F844328B697BB1DE
:1016F000D0F804321343C0F804320B6973B1D0F848
:1017000014321343C0F81432096A01290CD010E0D6
:10171000D0F804329343C0F80432EEE7D0F8143224
:101720009343C0F81432EFE7D0F81C121143C0F80D
:101730001C12D0F8001221F00101C0F800120020A4
:1017400010BD000000640040704730B590F82040A4
:10175000012C09D090F82040022C05D0416A41F4B8
:1017600080214162012030BD11B101290AD00DE074
:101770000468E468A40709D1416A41F40011416298
:10178000012030BD04682469A40750D04FF4D874F8
:10179000056804EB01142D5905F004059560F5B3B7
:1017A00005682D59ED08556005682C59C4F34004AF
:1017B000D4604FF4DA74056804EB01142D5905F078
:1017C0000F05156105682D59C5F307259561056855
:1017D0002C59240C54614FF4DC72046802EB0112A2
:1017E000A4581C700468A458240A5C700468A458A7
:1017F000240C9C700468A258120EDA704FF4DE724A
:10180000046802EB0112A4581C710468A458240A4D
:101810005C710468A458240C9C71046800E00CE01E
:10182000A258120EDA7169B1012911D015E0416A8E
:1018300041F400114162012030BD05682D596D0D44
:101840001560B1E70068C16841F02001C16004E0A3
:101850000068016941F020010161002030BD0146AE
:10186000002091F82020012A03D091F82020022A9C
:101870000CD109688A68520100D501208A681201DA
:1018800000D5401C8968C90000D5401C70472DE96F
:10189000F05F0546002428684669D0F80490876800
:1018A000D0F80CA0D0F810B0D0F81880F10748D0CC
:1018B000F90714D001218160B80703D5284600F04C
:1018C00085FA0CE0780702D54FF4006407E038078A
:1018D00002D54FF4805402E0284600F076FAF8056D
:1018E00016D529684FF480708860B80503D528465E
:1018F00000F06EFA0CE0780502D544F4005407E0DD
:10190000380502D544F4804402E0284600F05FFA2E
:10191000F80316D529684FF480308860B80303D5E2
:10192000284600F057FA0CE0780302D544F400444E
:1019300007E0380302D544F4803402E0284600F082
:1019400048FA300707D55FEACA6004D544F400744A
:1019500029681020C86070074FF0080707D55FEAB4
:101960000A7004D52868C760284600F0ABF9B007B4
:1019700006D52868C068800702D0284600F0A4F980
:10198000700607D55FEACB6004D544F4806429680B
:1019900010200861B00607D55FEA0B7004D52868EF
:1019A0000761284600F0E2F9F00606D528680069CC
:1019B000800702D0284600F0DAF9B00308D55FEAC4
:1019C000C96005D5296810204860284600F0D0F984
:1019D000F00307D55FEA097004D5286847602846F8
:1019E00000F0F9F9300446D55FEA497040D5F005BA
:1019F00004D55FEAC87001D044F00104B00504D5F5
:101A00005FEA887001D544F00204700504D55FEAEE
:101A1000487001D544F00404300529D518F0700F42
:101A200026D008F07000402815D006DC102809D018
:101A300020280AD0302816D10AE050280ED060287D
:101A400011D10EE044F008040DE044F010040AE067
:101A500044F0200407E044F0400404E044F0800433
:101A600001E044F480742868816921F0700181618B
:101A7000296804204860002C05D0686A2043686209
:101A80002846FFF761FEBDE8F09F70B50446002CC4
:101A900003D094F8200010B104E0012070BD20466E
:101AA00000F09CF82068016821F00201016000F05C
:101AB00043FD054605260CE000F03EFD401B0A28CC
:101AC00007D9606A40F40030606284F82060012029
:101AD00070BD206840688007EED42068016841F03E
:101AE0000101016000F028FD05460CE000F024FD36
:101AF000401B0A2807D9606A40F40030606284F80D
:101B00002060012070BD20684068C007EED0207EB4
:101B100001283FD02068016821F080010160607ECB
:101B200001283DD02068016821F040010160A07EBD
:101B300001283BD02068016821F020010160E07E8F
:101B4000012839D02068016841F010010160207F30
:101B5000012837D02068016821F008010160607F0A
:101B6000012835D02068016821F004010160D4E922
:101B700002010843D4E90412114308436168491E75
:101B800008432168C86100206062012084F82000B9
:101B9000002070BD2068016841F080010160BEE74F
:101BA0002068016841F040010160C0E720680168D9
:101BB00041F020010160C2E72068016821F01001B6
:101BC0000160C4E72068016841F008010160C6E7D0
:101BD0002068016841F004010160C8E7F0B587B0F2
:101BE000334B0168DFF8C4C01868032402260927B4
:101BF000401C304A0025614525D11860012807D1D5
:101C0000106840F000701060106800F000700190E3
:101C10000294039604950594069702A9264800F0BD
:101C20008DFB00221146142000F012FD142000F05C
:101C300004FD00221146152000F00AFD152000F0D9
:101C4000FCFC07B0F0BDDFF874C06145F9D1116844
:101C500041F080611160116801F0806101911860AC
:101C6000012807D1106840F000701060106800F083
:101C7000007001904FF44050029003960495059433
:101C8000069702A90E4800F059FB00221146402099
:101C900000F0DEFC402000F0D0FC00221146412084
:101CA00000F0D6FC412000F0C8FCCAE70064004008
:101CB0000C00002040380240000C02400068004048
:101CC000000402407047000010B588B00446204B65
:101CD00001AA00212046FFF738FD18B158211DA0A8
:101CE00006F021F91A4A01A92046FEF78BFE0028CA
:101CF00021D10198A0F5007159391CD10020059916
:101D0000134A194C082918D00599062913D161687E
:101D1000135C01F8013B6160401CC0B20628F6D399
:101D20000B4816306060014616221630FEF78DFA19
:101D30002068401C206008B010BD6168135C01F889
:101D4000013B6160401CC0B20828F6D3F3E70000F5
:101D5000022700202E2E2F4253502F6273705F6394
:101D6000616E2E6300000000C400002070477047C1
:101D7000704770B5044694F82000012805D0606AC9
:101D800040F400206062012070BD022084F8200031
:101D90002068016821F00101016000F0CDFB0546DB
:101DA0000DE000F0C9FB401B0A2808D9606A40F426
:101DB00000306062052084F82000012070BD20689A
:101DC0004068C007EDD1606270BD704770477047D2
:101DD000704770477047704790F83510022903D05C
:101DE0008021416501207047052180F83510006889
:101DF000016821F0010101600020704770B50446C0
:101E0000002C24D094F83500022822D020680168E4
:101E100021F001010160206800250560206845600F
:101E2000206885602068C5602068056121682120E0
:101E300048612046FFF7F2F934343F2194F8282016
:101E400091408160256265702570002070BD012081
:101E500070BD022070BD00002DE9F84304464FF02C
:101E60000009CDF800906F484FF416510068B0FBA0
:101E7000F1F7A56D2E6894F85C00082202FA00F1D3
:101E8000314210D02068016849070CD5016821F063
:101E90000401016094F85C0002FA00F1A960606D31
:101EA00040F00100606594F85C104FF0010808FAFA
:101EB00001F0304208D021684969090604D5A860BC
:101EC000606D40F00200606594F85C10042088406A
:101ED000304208D021680968890704D5A860606D80
:101EE00040F00400606594F85C1010208840304297
:101EF00020D02168096809071CD5A86020680168FE
:101F000049030CD50068000304D4216C91B120462C
:101F100088470FE0A16C69B1204688470AE0016854
:101F2000C90503D4016821F008010160216C09B1E1
:101F30002046884794F85C102020884030424CD0DE
:101F400021680968C90648D5A86094F835000528B5
:101F50000BD020680168490330D50068000328D4FD
:101F6000616C51B32046884737E02068016821F052
:101F7000160101602068416921F080014161206CF7
:101F800008B9A06C20B12068016821F00801016047
:101F900094F85C103F208840A86084F8349084F85E
:101FA0003580216D00293BD001B02046BDE8F043CB
:101FB0000847E16B09B1204688470EE00168C90572
:101FC00007D4016821F01001016084F8349084F88E
:101FD0003580E16B09B120468847606D00281FD02D
:101FE000606DC00714D0052084F8350020680168B2
:101FF00021F0010101600098401C0090B84203D814
:1020000020680068C007F6D184F8349084F83580E1
:10201000E16C002904D001B02046BDE8F043084738
:10202000BDE8F883080000202DE9F041044600F0E7
:1020300083FA05465CB1002684F83460022084F8F7
:1020400035002068016821F0010101600DE00120E8
:10205000BDE8F08100F070FA401B052805D920206A
:102060006065032084F83500F2E720680068C00747
:10207000F0D121680A6820480240D4E901031843DE
:10208000D4E903352B43184363691843A369184304
:10209000E3691843236A18431043626A042A03D190
:1020A000D4E90B231A43104308602068406920F0EC
:1020B0000700656A29460543012704290DD1A06A56
:1020C0000543E06A48B12046FFF7BEF828B140203A
:1020D000606584F835700120BAE7206845612046C4
:1020E000FFF79CF894F85C203F2191408160666581
:1020F00084F835700020ABE73F8010F070B50446DF
:10210000002594F8340001280CD0012084F8340014
:1021100094F835600020012E06D084F834000225A2
:10212000284670BD022070BD022684F835606065C7
:102130002046FFF7C5F82068016841F00101016001
:10214000EEE72DE9F04104460025A66D94F8340031
:1021500001280DD0012084F8340094F83570002057
:10216000012F07D084F8340002252846BDE8F0810D
:102170000220FBE7022784F8357060652046FFF7F0
:102180009FF894F85C103F208840B0602068016898
:1021900041F0160101602068416941F08001416110
:1021A000206C20B12068016841F0080101602068BE
:1021B000016841F001010160D7E7000070B50446F5
:1021C00000F0BAF90546601C02D0044800780444C7
:1021D00000F0B2F9401BA042FAD370BDE800002025
:1021E0002DE9F04F0023DFF824814FF0010C0F2779
:1021F0000CFA03F201EA020494427DD106684FEA28
:102200004309032505FA09F5AE430660DE0800EB35
:102210008609D9F820A05E074FEAD66B07FA0BFBB8
:102220002AEA0B0A3E46C9F820A0D0F8089029EA0D
:102230000509C0F80890D0F8049029EA0209C0F80E
:102240000490C268AA43C26023F0030202EB0805AF
:10225000D5F808284FEA83794FEA197906FA09F682
:1022600006EA020A2A4A904201D100222DE0294AB8
:10227000904201D1012228E0274A904201D1022256
:1022800023E0264A904201D103221EE0244A9042D4
:1022900001D1042219E0234A904201D1052214E021
:1022A000214A904201D106220FE0204A904201D1FA
:1022B00007220AE01E4A904201D1082205E01D4A89
:1022C000904201D1092200E00A2202FA09F25245A5
:1022D00016D1D5F80828B243C5F80828164A15685B
:1022E000A5431560121D1568A5431560121D1568DC
:1022F000A5431560121D00E002E01568A5431560B6
:102300005B1C102BFFF474AFBDE8F08F0030014070
:10231000000002400004024000080240000C02409D
:10232000001002400014024000180240001C02404D
:102330000020024000240240003C01402DE9F84FFB
:102340000022DFF8A491DFF8A08109F108094FF01D
:10235000010E4FF00F0C09F1040A0EFA02F60B6899
:102360003340B34271D14C68022C01D0122C11D1F0
:10237000D40800EB84073D6A5407E40E0CFA04FB12
:1023800025EA0B05D1F810B00BFA04FB4BEA050B5C
:10239000C7F820B0076854000325A540AF4391F863
:1023A00004B00BF0030B0BFA04FB4BEA070BC0F86D
:1023B00000B04F68012F05D0022F03D0112F01D09C
:1023C000122F11D18768AF43D1F80CB00BFA04FB80
:1023D0004BEA070BC0F808B04768B7430E79C6F35D
:1023E000001696403E434660C668AE438D68A540E1
:1023F0003543C5604C68E4006FD53C4C256845F416
:1024000080452560246804F480440094384C22F010
:1024100003052544D5F808789407260F0CFA06F42E
:10242000A743344CA04201D100242EE0324CA042FC
:1024300001D1012429E0314CA04201D1022424E041
:102440002F4CA04202D103241FE046E02D4CA042B5
:1024500001D1042419E02C4CA04201D1052414E040
:102460002A4CA04201D106240FE0294CA04201D100
:1024700007240AE0274CA04201D1082405E0264C9D
:10248000A04201D1092400E00A24B4403C43C5F82D
:102490000848D8F800409C434D68ED0300D51C4324
:1024A000C8F80040104D2D1D2C689C434E68B603A3
:1024B00000D51C432C60D9F800409C434D68ED02C8
:1024C00000D51C43C9F80040DAF800409C434D6831
:1024D000AD0200D51C43CAF80040521C102AFFF47C
:1024E0003CAFBDE8F88F0000003C0140443802409A
:1024F0000030014000000240000402400008024099
:10250000000C02400010024000140240001802407B
:10251000001C0240002002400024024000690842E2
:1025200001D00120704700207047002A01D081614E
:102530007047090481617047014880687047000056
:10254000E8000020024881680278114481607047E9
:10255000E800002010B50B48016841F400710160EB
:10256000016841F480610160016841F4807101609B
:10257000032000F08DF8002000F006F800F026F8A7
:10258000002010BD003C024070B504460D4D4FF4D4
:102590007A712878B1FBF0F00B490968B1FBF0F0D3
:1025A00001F0E8FE08B1012070BD102C07D2002216
:1025B0002146501E00F04CF86C60002070BD0120D8
:1025C00070BD0000E80000200800002010B50320C6
:1025D00000F05EF8002211466FF00B0000F038F8B2
:1025E000002211466FF00A0000F032F80022114676
:1025F0006FF0090000F02CF800221146501F00F087
:1026000027F800221146101F00F022F80022114680
:10261000901E00F01DF80022BDE810401146501E2B
:1026200000F016B800F01F0201219140400980001F
:1026300000F1E020C0F88011704700F01F02012176
:1026400091404009800000F1E020C0F8001170477F
:10265000F0B40D460D4B1B68C3F30223C3F107040E
:10266000042C00D90424191D072901D2002300E0FD
:10267000DB1E012606FA04F1491E294099409E40BE
:10268000761E16403143F0BC02F09ABD0CED00E01E
:1026900000F00701054A10684FF6FF03184040EAB2
:1026A0000120034908431060704700000CED00E072
:1026B0000000FA05006841620020704770B50023F1
:1026C0000068446A002906D0856A04EB15444FF47B
:1026D0008275491E0AE044EA024181620DE005EB81
:1026E0008306865904EB16445B1CDBB28B42F6DB97
:1026F00005EB810144EA02424250002070BDD0F84F
:10270000EC0304F037BCC1EBC10200EB8202D0F84D
:10271000EC03526C04F09BBBC1EBC10200EB8202E4
:10272000D0F8EC03D2F8042204F0EEBBD0F8EC03AE
:1027300004F022BC10B504460A4602F07F00C0EB4C
:10274000C001130604EB810101D5383101E001F528
:10275000FC710870D009487094F8B803012809D0BA
:10276000012084F8B803206804F0B2FF002084F848
:10277000B80310BD022010BD70B50446084601061E
:1027800000F07F0205D5C2EBC20104EB81013831B4
:1027900005E0C0EBC00104EB810101F5FC710025EF
:1027A0008D700A70C009487094F8B803012809D0E8
:1027B000012084F8B803206805F070F984F8B85354
:1027C000002070BD022070BD01F00F01C1EBC101FE
:1027D00000EB8100B0F8100280B2704770B504467B
:1027E0000D4605F07F00C0EBC0012E0604EB810111
:1027F00001D5383101E001F5FC710870ED094D702B
:102800008A60CB7005B1C8800025022B00D10D7104
:1028100094F8B803012809D0012084F8B80320688F
:1028200004F0A4FE284684F8B85370BD022070BDA1
:1028300070B50D4605F07F04C4EBC40100EB8101C7
:1028400001F5FC71CA604B6100238B614B700C7009
:102850000369012B00D10A616A0605D0027C006879
:1028600005F07EF9002070BD027C006805F056F886
:10287000F8E770B504460D46290605F07F0005D53A
:10288000C0EBC00104EB8101383105E0C5EBC501A7
:1028900004EB810101F5FC7101228A700870E809DE
:1028A000487094F8B803012807D084F8B82320684A
:1028B00005F026F9680602D007E0022070BD217CF1
:1028C00004F56F72206805F0CDF8002084F8B80395
:1028D00070BD70B50D4605F07F04C4EBC40100EB7C
:1028E00081013831CA604B6100238B6101234B7039
:1028F0000C700369012B00D10A616A0605D0027CC5
:10290000006805F02DF9002070BD027C006805F01C
:1029100005F8F8E72DE9F84F04462668002530460B
:1029200005F082FA002872D1206805F0A6FA002886
:102930006DD0206805F0A1FA800704D520684169B0
:1029400001F002014161206805F097FA010304F5E6
:102950006F704FF001094FF0080A4FF0100B009014
:102960004AD5206805F06BFA074643E0F8073FD0E8
:10297000E9B2206805F079FA80465FEAC87026D08F
:1029800006EB4512C2F8089B206901280FD1C5EB60
:10299000C50004EB800000F50070D2F8102B016830
:1029A000C2F312028A1A0261426811444160E9B21C
:1029B0002046FFF7B1FE2069012808D13DB9D4F8BF
:1029C0000C0220B920680121009A05F04BF85FEA5B
:1029D000087006D5204600F0E4FA06EB4510C0F872
:1029E00008AB5FEAC86003D506EB4510C0F808BB2A
:1029F0006D1C7F08002FB9D1206805F03EFA400316
:102A00005BD5206805F014FA8046002552E0DFE12E
:102A10005FEAC8704BD0E9B2206805F017FA0746A4
:102A2000F80724D009FA05F0D6F834188143C6F81F
:102A3000341806EB4510C0F808992069012807D121
:102A4000C5EBC50004EB8000D0E9102111444164BE
:102A5000E9B22046FFF757FE2069012807D135B9B2
:102A6000E06C20B920680121009A04F0FBFF3807D0
:102A700003D506EB4510C0F808A9F80603D506EB08
:102A80004510C0F808B9780604D506EB451140207A
:102A9000C1F80809B80704D506EB45110220C1F8B2
:102AA0000809380603D52946204602F09FFB6D1C15
:102AB0004FEA5808B8F1000FAAD1206805F0DDF9F7
:102AC00000280DDAD6F8040820F00100C6F8040842
:102AD000204600F04CFA2068416901F00041416154
:102AE000206805F0CAF900050BD5D6F80808C0071C
:102AF00002D0204600F072FA2068416901F40061BA
:102B00004161206805F0B9F9C0044BD5D6F8040836
:102B100020F00100C6F804081021206805F054F9DF
:102B20000020FF2206E006EB4011C1F80829C1F899
:102B3000082B401C61688142F5D84FF0FF30C6F881
:102B40001808D6F81C0840F00110C6F81C08206BC5
:102B500060B1D6F8840840F00B00C6F88408D6F8B7
:102B6000440840F00B00C6F844080BE0D6F81408FF
:102B700040F00B00C6F81408D6F8100840F00B001F
:102B8000C6F81008D6F8000820F4FE60C6F8000861
:102B9000217C2068009A04F065FF2068416901F4F7
:102BA00080514161206805F068F9800474D520687F
:102BB00004F01EFD2068C16821F47051C1602068D6
:102BC00005F014F980B10320E0604020606100F05E
:102BD000BFFA8049804A0144914210D22068C168FE
:102BE00041F47051C16068E00020E0604FF4007073
:102BF00060612068C16841F41051C1605DE07749AF
:102C0000774A0144914205D22068C16841F460517D
:102C1000C16052E07349744A0144914205D2206870
:102C2000C16841F45051C16047E07049704A0144A5
:102C3000914205D22068C16841F44051C1603CE036
:102C40006C496D4A0144914205D22068C16841F443
:102C50003051C16031E06949694A0144914205D26D
:102C60002068C16841F42051C16026E06549664A88
:102C70000144914205D22068C16841F41051C160FD
:102C80001BE06249624A0144914206D22068C16851
:102C900041F40051C16010E017E05E4908445E490C
:102CA000884205D22068C16841F4E051C16004E067
:102CB0002068C16841F4C051C160204600F046F967
:102CC0002068416901F400514161206805F0D5F8A0
:102CD000C00637D52068816921F010018161D6F8DE
:102CE000208008F00F00C0EBC00004EB800707F560
:102CF000FC77C8F34340022802D0062813D01CE01A
:102D000047F6F07018EA000F17D0C8F30A12904681
:102D10003046F96805F0B5F8F8684044F860B869DD
:102D20004044B86109E008223046009905F0A9F84E
:102D3000B869C8F30A110844B8612068816941F094
:102D400010018161206805F098F8000707D520463A
:102D500000F011F92068416901F008014161206823
:102D600005F08BF8C00208D5E9B2204600F056F80D
:102D70002068416901F480114161206805F07DF807
:102D8000800208D5E9B2204600F04CF8206841697D
:102D900001F400114161206805F06FF8400007D58B
:102DA0002046FFF7ACFC2068416901F08041416199
:102DB000206805F062F840070AD520684568680772
:102DC00002D52046FFF7B2FC2068416829434160E4
:102DD000BDE8F88F405327FF00350C00401E1BFF55
:102DE00040420F0000DC0BFF804F1200808CF9FE88
:102DF00020D6130060B6E5FE60E3160000D3CEFED9
:102E000040771B00C05BB3FEC091210000CA91FE59
:102E100020753800E05459FEE09C4100D0F8EC03E6
:102E200004F00AB9D0F8EC0304F008B9F0B58BB09F
:102E300004460025002C54D0032084F8B903204612
:102E400000F052F8206804F063FD04F1100128221C
:102E50000F466846FDF7F9F994E80F0004F0E2FB2D
:102E60000021206805F01DF801260022C5EBC500F1
:102E700004EB8000383046700570C580C2708260F7
:102E8000C26042616D1C0F2DF0D300204FF482739D
:102E9000C0EBC00104EB810181F8F92181F8F80150
:102EA000C88781F8FB21C1F80022C1F80422C1F8CB
:102EB0000C22216803EB80054A51401C0F28E7D300
:102EC000282239466846FDF7C0F994E80F0004F05F
:102ED0007DFC84F8B963206804F06CFC00200BB022
:102EE000F0BD0120FBE7000000B587B00068B0F13D
:102EF000A04F25D14FF4C050029002200390002033
:102F00000490032005900A20069002A90D48FFF7BF
:102F100015FA0D48016841F0800101600A4810303F
:102F2000016841F480410160006800F48040019034
:102F3000002211464320FFF78BFB4320FFF77DFB68
:102F400007B000BD000002403438024010B504460E
:102F50000121E068002800D10021D4F8EC0304F03E
:102F6000D0F8D4F8EC03BDE8104004F098B8D0F8DD
:102F7000EC0304F0B4B8D0F8EC0304F0B6B810B524
:102F8000044694F8B803012809D0012084F8B80356
:102F9000206804F09DFF002084F8B80310BD0220D3
:102FA00010BDD0F8EC2300F56F71104604F0C2B8E4
:102FB00010B5044694F8B80301280CD0012084F819
:102FC000B803206804F0EAFB206804F0E7FE002064
:102FD00084F8B80310BD022010BD000010B50446EF
:102FE000D4F8EC0304F0FFF82068D0F8001E41F09C
:102FF0000101C0F8001E206A002804D002480168C0
:1030000041F00601016010BD10ED00E02DE9F04730
:1030100004460D46002C13D0DFF82491D9F80000A7
:10302000EFB200F00F00A8420CD289F80070D9F876
:10303000000000F00F00A84204D00120BDE8F08796
:103040000120FBE720683F4E810712D5400703D5DA
:10305000306840F4E05030602078000703D53068D5
:1030600040F4604030603068A16820F0F000084310
:1030700030602078C00731D03249606808390128B3
:1030800008D002280BD0032809D0096889070BD47F
:103090000120D3E70968890306D40120CEE7096837
:1030A000890101D40120C9E7316821F003010143FE
:1030B0003160FFF741FA804641F2883A07E0FFF7B6
:1030C0003BFAA0EB0800504501D90320B6E7306871
:1030D000616800F00C00B0EB810FF0D1D9F800006E
:1030E00000F00F00A84209D989F80070D9F8000053
:1030F00000F00F00A84201D001209FE72078400790
:1031000005D53068E16820F4E0500843306020784D
:10311000000706D53068216920F4604040EAC1000C
:10312000306000F03BF83168074AC1F30311515C8D
:10313000C840064908600020FFF726FA00207DE716
:10314000003C0240083802401495000808000020A6
:1031500001480068704700000800002000B5FFF734
:10316000F7FF04490968044AC1F38221515CC84051
:1031700000BD0000083802402495000800B5FFF7A4
:10318000E7FF04490968044AC1F34231515CC84071
:1031900000BD0000083802402495000810B517480B
:1031A000006810F00C01164816D0164B042912D0F6
:1031B000082911D1114C241F216801F03F02216818
:1031C00049020AD52068C0F38810A0FB0301002340
:1031D000FDF70AF809E0184610BD21680023C1F385
:1031E0008811A1FB0001FCF7FFFF2168C1F3014139
:1031F000491C4900B0FBF1F010BD00000838024046
:103200000024F400001BB7002DE9F84F0446002C01
:1032100010D02078DC4DC00757D0DB48083001685B
:10322000C1F3810101290DD00068C0F3810002289B
:1032300003D00EE00120BDE8F88FD348001D0068E0
:10324000400206D5286880033FD5606870BB012026
:10325000F1E76068B0F5803F10D0B0F5A02F12D034
:10326000286820F480302860286820F480202860B6
:103270006068E0B1FFF760F9064614E0286840F4A2
:1032800080302860F4E7286840F4802028602868AF
:1032900040F480302860EBE7FFF74EF9801B64288C
:1032A00001D90320C7E728688003F5D50DE0FFF7B3
:1032B00043F9064606E0FFF73FF9801B642801D971
:1032C0000320B8E728688003F5D42078AF4F800743
:1032D0004FF0000849D5AC480830016811F00C0FD8
:1032E00009D00068C0F38100022814D1A648001D4F
:1032F000006840020FD42868800704D5E0680128E0
:1033000001D0012097E72868216920F0F80040EA01
:10331000C100286029E0E068B8B101203860FFF7FB
:103320000BF9064606E0FFF707F9801B022801D9D2
:10333000032080E728688007F5D52868216920F0F8
:10334000F80040EAC10028600FE0C7F80080FFF7EE
:10335000F3F8064606E0FFF7EFF8801B022801D9D4
:10336000032068E728688007F5D42078000729D56E
:10337000DFF814928648616909F1740989B1012165
:103380000160FFF7D9F8064606E0FFF7D5F8801B85
:10339000022801D903204EE7D9F800008007F4D5B0
:1033A00010E0C0F80080FFF7C7F8064606E0FFF718
:1033B000C3F8801B022801D903203CE7D9F800009C
:1033C0008007F4D42078400772D50026DFF8B8A132
:1033D0000AF1400ADAF80000C0000BD4DAF8000065
:1033E00040F08050CAF80000DAF8000000F0805089
:1033F00000900126DFF89CB1DBF80000C00515D471
:10340000DBF8000040F48070CBF80000FFF794F880
:10341000814607E0FFF790F8A0EB0900022801D9E8
:10342000032008E7DBF80000C005F3D5DFF858B14A
:10343000A0680BF1700B012813D0052818D0DBF819
:10344000000020F00100CBF80000DBF8000020F0C5
:103450000400CBF80000A06830B3FFF76DF8814698
:103460001DE0DBF8000040F00100CBF80000F2E7BF
:10347000DBF8000040F00400CBF80000DBF80000AF
:1034800040F00100CBF80000E5E7FFF755F8A0EBAE
:10349000090141F28830814201D90320CBE6DBF8F3
:1034A00000008007F1D512E0FFF746F881460AE0F8
:1034B00015E0FFF741F8A0EB090141F288308142A5
:1034C00001D90320B7E6DBF800008007F1D4012E14
:1034D00005D1DAF8000020F08050CAF80000A06999
:1034E000C0B3294908310968C1F38101022949D0D3
:1034F000022805D0C7F86080FFF71EF804463CE0BC
:10350000C7F86080FFF718F8064606E0FFF714F8E2
:10351000801B022801D903208DE628688001F5D49C
:10352000D4E907010843616AA26A4FF0FF338901B9
:1035300003EB520241EA0241084394F82C1040EA9E
:1035400001611148001D016001203866FEF7F4FF9B
:10355000044607E014E0FEF7EFFF001B022801D944
:10356000032068E628688001F5D509E0FEF7E4FF4E
:10357000001B022801D903205DE628688001F5D4EC
:10358000002058E6012056E600380240000047427D
:10359000800E474200700040704770B58AB0044604
:1035A0000D46032084F83400606C03281ED0B5F566
:1035B000805F08D0B5F5006F0AD085B1A06B40F0F0
:1035C0000060A06316E0A06B40F08050A06311E0A3
:1035D000204602F0AFFBA16B0143A1630AE0204645
:1035E00002F07FFBA16B0143A16303E0A06B40F0FD
:1035F0008050A063A06B012640B1216840F2FF50CB
:10360000886384F8346001200AB070BD606804905B
:10361000A0680590E0680690079560690890A06929
:10362000099007A807C88DE8070004A920680EC9FB
:1036300001F048FE84F834600020E5E77047F0B5FB
:10364000426E120E93090B70C2F383034B7002F0AB
:1036500003028A70426E120CCA70B0F86420120A1B
:103660000A7190F864204A71826E120E4FF6FF7351
:1036700003EA0212CA80826EC2F30742CB8843EA91
:103680001213CB8002F00F020A72B0F86820C2F366
:103690000722D3094B72C2F380138B72C2F340131B
:1036A000CB72C2F300130B7300264E73436C0125DB
:1036B0004FF40077002B0DD0012B44D0026840F26C
:1036C000FF519163816B41F08051816380F83450E8
:1036D0000120F0BD9207120D0A6190F868200B6975
:1036E00043EA82020A61C26E120E0B6943EA921328
:1036F0000B61C2F3C2030B7502F007024A75C26E7A
:10370000C2F3074253098B75C2F38203CB7592074C
:10371000520F0A76B0F86C20C2F307220B7E43EA00
:10372000D2130B760C69641C44650B7E9B1C9C4079
:10373000446591F808C005FA0CF383655B0A5C43A5
:10374000C46507661CE090F868209206920A0A6138
:10375000C26E120E0B6943EA02220A61C26EC2F304
:1037600007420B6913430B61B0F86C20C2F30722C8
:103770000B695B1C4FEA83234365C3658765076656
:10378000C2F3801301F8193F4FEA82624FEA526296
:103790004A7010F86C2F4B7843EAD2134B7002F04A
:1037A0007F028A7042684FEA12624FEAD213CB70EE
:1037B000C2F341130B71C2F382034B714FEA827261
:1037C0004FEA12728A714268C2F307428B7943EA68
:1037D00092138B71C2F34013CB710E7202F001028F
:1037E0004A728288C2F307224FEAD2138B72C2F365
:1037F0008013CB72C2F340130B73C2F300134B73ED
:10380000C2F381038B7302F00302CA7300794FEA9B
:10381000500008744D744FF00000F0BD426C0A6017
:10382000826C4A60C26C8A60026DCA60426D0A6135
:10383000826D4A61C26D8A61006EC8610020704766
:1038400038B50446002000906946204602F032FA5E
:1038500010B1A16B0143A1630098C0F3432038BDB0
:1038600070B504462068416B4FF00105CA0540F26F
:103870003A314DD52A0282632068C26B8A43C26303
:10388000206B000723D5206B800702D4206B8006B5
:1038900009D5206801F098FE28B1A16B0143A1630E
:1038A0002046FFF7CBFE216840F2FF50886384F882
:1038B0003450206BC00702D1206B800703D520460F
:1038C00000F02AFA70BD204600F027FA70BD206B88
:1038D0000006FBD5206B800609D5206801F074FE38
:1038E00028B1A16B0143A1632046FFF7A7FE206B1F
:1038F000C007EBD1206B8007E8D42068C16A21F0B3
:103900000801C16284F83450204600F006FA70BD08
:10391000426B520407D54FF4804181632046BDE8D5
:10392000704002F030BA426B120407D54FF40041E8
:1039300081632046BDE8704002F0ABB9426B40F2B3
:103940003A231A42E3D0426B920703D5A26B42F0AE
:103950000202A263426B120703D5A26B42F0080277
:10396000A263426B920603D5A26B42F02002A263CF
:10397000426BD20603D5A26B42F01002A263426BE7
:10398000920503D5A26B42F00802A26340F2FF72D7
:1039900082632068C26B8A43C263206B000623D512
:1039A000206C58B115490165206CFEF715FA002806
:1039B000ADD0206CBDE8704001F0E7BFE06B58B1BE
:1039C0000F490165E06BFEF707FA00289FD0E06B16
:1039D000BDE8704001F0B4BF0020A06384F834500B
:1039E0002046FFF7D9FD70BD206B0007FBD584F89A
:1039F00034502046FFF722FE70BD00008B590008AE
:103A00004159000870B50446002C04D094F83400E5
:103A1000002510B105E0012070BD2577204600F09B
:103A200047F8032084F83400204600F007F8A56327
:103A30002563012084F83400002070BD70B58AB081
:103A4000044600250495059506950795089576206A
:103A500009900095CDE901502B462A462946206859
:103A600001F030FC114E3560206801F040FC01256A
:103A700035600220FEF7A2FB204602F0A8F838B11C
:103A800084F83450A16B0143A16301200AB070BDDA
:103A9000204602F02BF830B184F83450A16B01437A
:103AA000A1630120F2E70020F0E70000A08025429A
:103AB000F0B587B000681749884229D10027164819
:103AC000016841F400610160006800F40060019049
:103AD0004FF4F850029002240394049703250595AF
:103AE0000C26069602A90D48FEF728FC0420029039
:103AF000039404970595069602A90948FEF71EFC53
:103B0000002211463120FEF7A3FD3120FEF795FD7E
:103B100007B0F0BD002C01404438024000080240CC
:103B2000000C02402DE9F04F87B004460D46934645
:103B30009A46109EFEF700FD80465DB194F8340071
:103B400001280DD0A06B40F00050A063012007B009
:103B5000BDE8F08FA06B40F00060A0630120F6E7A5
:103B60000027A763E16D0BEB0A00884205D9A06B23
:103B700040F00070A0630120E9E7032084F83400DE
:103B80002068C762606C012801D04FEA4B2B4FF4CC
:103B90000071206801F0FAFB40F2FF59012148B1A1
:103BA0002268C2F83890A26B0243A26384F83410F2
:103BB0000120CCE74FF0FF3001904FEA4A200290FD
:103BC000902003900220049005970F46069101A9CA
:103BD000206801F051FBBAF1010F06D902202063E1
:103BE0005946206801F030FC04E0276359462068FC
:103BF00001F043FC58B32168C1F83890A16B014330
:103C0000A16384F834700120A1E7406B00040CD557
:103C10004FF0000B206801F06EFB45F82B000BF114
:103C2000010BBBF1080FF5D320352EB1FEF784FC54
:103C3000A0EB0800B0420AD32068C0F83890A06B0F
:103C400040F00040A06384F8347003207FE72068D0
:103C5000416B40F22A321142D7D02168496BC90525
:103C600012D5BAF1010F0FD9616C03290CD001F004
:103C7000ABFC48B12168C1F83890A16B0143A16346
:103C800084F83470012062E72068416B090709D588
:103C9000C0F83890A06B40F00800A06384F834703E
:103CA000012054E7416B890709D5C0F83890A06B13
:103CB00040F00200A06384F83470012047E7416BB4
:103CC00089061ED5C0F83890A06B40F02000A06394
:103CD00084F8347001203AE701F00DFB01C52EB1E4
:103CE000FEF72AFCA0EB0800B0420AD32068C0F817
:103CF0003890A06B40F00040A06384F8347001203D
:103D000025E72068416B8902E6D42068C0F8389026
:103D100084F8347000201AE7704770472DE9F04F9F
:103D200087B004460E4615469A46DDF840B0FEF7C9
:103D300003FC00905EB194F8340001280DD0A06B14
:103D400040F00050A063012007B0BDE8F08FA06BE9
:103D500040F00060A0630120F6E70020A063E26D60
:103D600005EB0A01914205D9A06B40F00070A063F9
:103D70000120E9E7032184F8341021680020C8629B
:103D8000606C012800D06D024FF40071206801F0D2
:103D9000FDFA40F2FF584FF0010948B12168C1F81F
:103DA0003880A16B0143A16384F834900120CBE7F4
:103DB000BAF1010F07D9202020632946206801F0BD
:103DC0001DFC074606E0102020632946206801F00C
:103DD0002EFC07464FB12068C0F83880A06B3843EE
:103DE000A06384F834900120AEE74FF0FF300190DB
:103DF0004FEA4A2002909020039000200490059002
:103E0000CDF8189001A9206801F036FA1FE0406B48
:103E1000400409D5002506EB8501206801F07EFAF3
:103E20006D1C082DF7D32036BBF1000F05D0FEF72F
:103E300083FB0099401A584509D32068C0F83880A0
:103E4000A06B3843A06384F8349003207CE720689B
:103E5000416B40F21A321142D9D02168496BC90531
:103E600012D5BAF1010F0FD9616C03290CD001F002
:103E7000ABFB48B12168C1F83880A16B0143A16355
:103E800084F8349001205FE72068416B090709D569
:103E9000C0F83880A06B40F00800A06384F834902C
:103EA000012051E7416B890709D5C0F83880A06B24
:103EB00040F00200A06384F83490012044E7416B95
:103EC000C90609D5C0F83880A06B40F01000A06387
:103ED00084F83490012037E7C0F8388084F83490B3
:103EE000002031E770B50446002C05D00025A562FE
:103EF00094F8510010B106E0012070BD84F85050D4
:103F0000204600F031F8022084F851002068016852
:103F100021F040010160D4E901010843D4E9031212
:103F20001143084361690843218B01F40071084380
:103F3000E1690843216A0843A16A084321680860CF
:103F4000A069042101EA1040616A084321684860C1
:103F50002068C16921F40061C1616565012084F8B0
:103F60005100002070BD0000F0B587B000681E4A07
:103F700000251E4902260327052490421DD108680A
:103F800040F480500860086800F4805001901820C8
:103F90000290039604950597069402A91448FEF72B
:103FA000CDF980200290039604950597069402A906
:103FB0001048FEF7C3F907B0F0BD0F4A9042FAD19E
:103FC000086840F480100860086800F480100190D0
:103FD0004FF460700290039604950597069402A929
:103FE0000648FEF7ABF9E6E70030014044380240EE
:103FF0000004024000000240005001400014024052
:104000002DE9F84F04460D4693461E46002794F8C6
:10401000500001280DD04FF0010A84F850A0FEF79F
:104020008BFA804694F85100B946012804D0022743
:104030009EE00220BDE8F88FDDB1BBF1000F18D083
:10404000032084F85100C4F854902563A4F834B0D8
:10405000A4F836B0C4F83890A4F83C90A4F83E9088
:10406000C4F84490C4F84090A068B0F5004F02D066
:1040700006E001277CE02068016841F4804101608E
:1040800020680168490603D4016841F040010160DD
:10409000E068B0F5006F05D0606850B3E08E01288D
:1040A00027D044E0606810B1E08E01281DD121685E
:1040B00035F8020BC860E08E401EE08615E02068EF
:1040C0008168890706D535F8021BC160E08E401E65
:1040D000E0860AE03EB1701C07D0FEF72DFAA0EB97
:1040E0000800B04201D3032742E0E08E0028E6D169
:1040F00020E0216815F8010B0873E08E401EE08671
:1041000015E020688168890706D515F8011B017341
:10411000E08E401EE0860AE03EB1701C07D0FEF73C
:104120000BFAA0EB0800B04201D3032720E0E08E99
:104130000028E6D13346012202212046CDF8008036
:1041400001F0A4FE08B1032712E0424631462046A2
:1041500001F08AFE18B101272020606508E0A06800
:1041600018B92068C16880680090606D00B10127AF
:1041700084F851A084F8509038465BE72DE9F84F59
:104180000446DDF828800D4616469B4601274FF071
:10419000000994F8500001280ED0012084F8500046
:1041A000FEF7CAF9824694F85100616801280DD0E3
:1041B000B1F5827F07D102E00220BDE8F88FA16847
:1041C00009B9042802D04FF00209BDE045B13EB163
:1041D000BBF1000F04D094F85100012803D005E092
:1041E0004FF00109B0E0052084F85100002060651F
:1041F000A663A4F83EB0A4F83CB02563A4F836B09A
:10420000A4F834B02064606420680168490603D4CF
:10421000016841F040010160E068B0F5006F05D031
:104220006068B8B3E08E01283CD06AE0606810B1E5
:10423000E08E01282FD1216835F8020BC860E08E8E
:10424000401EE08627E067B1E08E50B120688168AB
:10425000890706D535F8021BC160E08E401EE08656
:104260000027E08F50B120688168C90706D0C06878
:1042700026F8020BE08F401EE0870127B8F1FF3FD0
:1042800009D0FEF759F9A0EB0A00404503D34FF0DF
:10429000030959E006E0E08E0028D4D1E08F002821
:1042A000D1D134E0216815F8010B0873E08E401E6F
:1042B000E08626E067B1E08E50B12068816889070A
:1042C00006D515F8011B0173E08E401EE08600271D
:1042D000E08F50B120688168C90706D0C06806F831
:1042E000010BE08F401EE0870127B8F1FF3F08D0A7
:1042F000FEF722F9A0EB0A00404502D34FF0030974
:1043000022E0E08E0028D5D1E08F0028D2D14346AC
:10431000012202212046CDF800A001F0B7FD10B126
:104320004FF0030910E052464146204601F09CFD43
:1043300020B14FF001092020606505E0A06818B9A0
:104340002068C168806800900120503460700020AF
:104350002070484631E74FF0E021042804D0086976
:1043600020F0040008617047086940F0040008610B
:104370007047704710B5401EB0F1807F01D3012017
:1043800010BD4FF0E02460610F21601700F018FFAE
:104390000020A06107202061002010BD10B5FFF7AC
:1043A000E8FF10BD10B590F83820012A25D0012271
:1043B00080F83820CA6800238C6822F440722243B7
:1043C0004C6822F4806222430C6822F4006222438B
:1043D0000C6922F4805222434C6922F40052224399
:1043E000896922F480420A4322F400420A430168A8
:1043F0004A6480F83830002010BD022010BD30B56E
:1044000090F83820012A20D0012380F83830022289
:1044100080F839200268546824F0700454600268FF
:1044200054680D682C4354600268946824F080043A
:1044300094600268946849680C43946080F839304D
:10444000002180F83810002030BD022030BD00006F
:1044500030B585B00168002402250122B1F1804FFA
:104460000FD02048814217D14FF470400090019541
:1044700002940394049569461B48FDF75FFF05B05D
:1044800030BD0F2000900195029403940492694678
:104490001648FDF753FFF2E7154B1648994213D122
:1044A000009201950294039404956946FDF746FF36
:1044B0004FF4E050009001950294039404956946EE
:1044C0000D48FDF73BFFDAE70C4A9142D7D1E421D2
:1044D0000091019502940394032104916946FDF72C
:1044E0002DFFCCE700080040000C02400000024015
:1044F000000C004000200240001C0240000401406B
:1045000070B504460D4694F8380001280DD00126F8
:1045100084F83860022084F8390042B1042A1AD0A5
:10452000082A2DD00C2A53D13EE0022070BD294626
:10453000206801F0E9FD2068816941F0080181618E
:104540002068816921F004018161206881692A69FC
:10455000114381613CE02946206801F005FE206896
:10456000816941F4006181612068816921F4806181
:104570008161206881692A6941EA0221816127E01D
:104580002946206801F026FE2068C16941F0080133
:10459000C1612068C16921F00401C1612068C1695D
:1045A0002A691143C16113E02946206801F046FEE3
:1045B0002068C16941F40061C1612068C16921F4CA
:1045C0008061C1612068C1692A6941EA0221C16133
:1045D000383466700020207070BD10B50446002C81
:1045E00003D094F8390010B107E0012010BD00207D
:1045F00084F83800204600F00DF8022084F83900D5
:10460000211D206801F01EFD012084F839000020E2
:1046100010BD000008B500681949B0F1804F0BD0FB
:10462000184A904211D1086840F0040008600868F8
:1046300000F00400009008BD086840F00100086028
:10464000086800F00100009008BD0F4A904208D1B0
:10465000086840F008000860086800F00800009052
:1046600008BD0A498842FBD10548001D016841F098
:1046700002010160006800F00200009008BD000027
:104680004038024000080040000C00400004014097
:1046900010B50446002C0CD0242084F839002046A4
:1046A00000F0CEF80020383460606070A070207098
:1046B00010BD012010BD704708B500680168C9062B
:1046C00002D501684068009008BD000070B504463E
:1046D00022681068D168526900F00F03002B08D1DE
:1046E000850606D58D0604D52046BDE8704001F04C
:1046F0003CBE002B5ED002F0010301F490752B4309
:1047000058D0C30705D0CB0503D5E36B43F00103B5
:10471000E363430705D5D30703D0E36B43F00203FC
:10472000E363830705D5D30703D0E36B43F00403AA
:10473000E363030705D5D20703D0E26B42F008021A
:10474000E263E26B002A2AD0800604D5880602D5EF
:10475000204601F00AFE20684069C0F38010E16B3A
:10476000090700D400B3204601F0DBFD2068416951
:10477000490615D5416921F040014161606B58B18E
:1047800015490165606BFDF727FB002807D0606BBA
:10479000016DBDE8704008472046FFF78CFF70BDF3
:1047A0002046FFF788FF70BD2046FFF784FF0020FA
:1047B000E06370BD020606D50A0604D52046BDE8B2
:1047C000704001F0A5BF4006F3D54806F1D520465C
:1047D000BDE8704001F0B3BD9162000870B50446B9
:1047E000002C04D094F83900002510B106E0012017
:1047F00070BD84F83850204600F056F8242084F824
:1048000039002068C16821F40051C160204601F0E0
:10481000F5FD2068016921F490410161206841693A
:1048200021F02A0141612068C16841F40051C16052
:10483000E563202084F8390084F83A00002070BD38
:1048400010B50446134A2168134891420FD10168FC
:1048500021F010010160C0211048FDF7C1FC606B20
:10486000FDF7CCFABDE810402520FDF7DBBE0C4A71
:1048700091420DD1016821F0200101604FF4844183
:104880000848FDF7ADFCBDE810404720FDF7CABE63
:1048900010BD0000001001404438024000040240F6
:1048A00000140140001802402DE9F04186B0044692
:1048B0004C49DFF82CC12068022201230325002681
:1048C0000F15604535D1086840F010000860086891
:1048D00000F010000090C020019002920393049514
:1048E0000720059001A94048FDF728FD404D3F48AD
:1048F000286078046860AE60EE602F616E61AE6122
:10490000C014E8612E626E622846FDF78DFB18B177
:10491000842138A003F007FB6563AC6300221146D5
:104920002520FDF795FE2520FDF787FE06B0BDE8A2
:10493000F081DFF8D4C06045F8D1086840F020006D
:104940000860086800F0200000904FF48440019057
:104950000292039304950820059001A92B48FDF7C6
:10496000EDFC2248224D6030C03528604FF02068B1
:10497000C5F804804020A860EE602F616E61AE61D2
:10498000EE612E626E622846FDF74EFB18B1B12132
:1049900018A003F0C8FA2563AC631448144D183806
:1049A00060352860C5F80480AE60EE602F616E61EE
:1049B000AE61EE612E626E622846FDF735FB18B1DE
:1049C000C2210CA003F0AFFA6563AC63002211466C
:1049D0004720FDF73DFE4720FDF72FFEA6E700002C
:1049E000001001404438024000040240406402408C
:1049F000440300202E2E2F436F72652F5372632FB6
:104A000075736172742E6300001401400018024037
:104A100090F83A30202B01D002207047D1B1CAB1B2
:104A200090F83830012B17D081628285C285002131
:104A3000C163222280F83A2080F8381001684A6960
:104A400042F001024A610068C16841F49071C1609E
:104A500000207047012070470220704730B403687F
:104A6000DC6844F01004DC6030BCFFF7D1BF704755
:104A7000F7B5044694F83900202801D00220FEBD85
:104A8000019979B372B394F8380001282DD0012030
:104A900084F838002162A284E2840025E5632120A5
:104AA00084F83900236B1248D863236B11481864CB
:104AB000236B1148D864206B056520681346001DE0
:104AC000266B02463046FDF73CFB21686FF0400044
:104AD000086084F838502068416941F080014161E4
:104AE0000020FEBDFFE70120FBE70220F9E7000000
:104AF000EB62000819630008A16200087047704764
:104B0000FEE700001FB51548134901604FF48031DE
:104B10004160002181600161012484610162C16200
:104B20000F4A8262C160C46104634461FCF7B0FC57
:104B300018B148210BA003F0F6F90620009001946B
:104B4000029469460548FCF7F5FB002803D0522182
:104B500004A003F0E8F91FBD00200140A4050020D7
:104B60000100000F2E2E2F436F72652F5372632F9B
:104B70006164632E6300000010B511480F490160A5
:104B80000321416000218160C1604FF40022026175
:104B90004FF4401242610176012242768176C2765C
:104BA00001774277FCF771FF002805D0BDE810407F
:104BB000462104A003F0B7B910BD00000064004016
:104BC000540500202E2E2F436F72652F5372632FD2
:104BD00063616E2E6300000010B511480F4901603B
:104BE0000321416000218160C1604FF40022026115
:104BF0004FF4401242610176012242768176C276FC
:104C000001774277FCF741FF002805D0BDE810404E
:104C10005C2104A003F087B910BD000000680040CB
:104C20007C0500202E2E2F436F72652F5372632F49
:104C300063616E2E6300000008B51148016841F4FD
:104C400080010160006800F480000090002211469D
:104C50003A20FDF7FDFC3A20FDF7EFFC002211465B
:104C60003920FDF7F5FC3920FDF7E7FC002211465D
:104C70004520FDF7EDFCBDE808404520FDF7DDBC13
:104C80003038024010B504490448FCF72FFB0249B4
:104C9000491E087010BD0000110000202C9500086E
:104CA0002DE9F04186B000243248016841F040010E
:104CB0000160016801F040010091016841F00101CB
:104CC0000160016801F001010091016841F00201F9
:104CD0000160016801F002010091016841F080016A
:104CE0000160016801F080010091016841F020013C
:104CF0000160016801F020010091016841F010019C
:104D00000160016801F010010091016841F00401A7
:104D10000160006800F004000090174F44F2400565
:104D2000012229463846FDF700FC0122DFF84C80BD
:104D3000D60231464046FDF7F8FB01950125029564
:104D40000394049401A93846FDF7F8FA01960295F8
:104D50000394049401A94046FDF7F0FA3020019035
:104D600002950395049401A94046FDF7E7FA06B0C1
:104D7000BDE8F081303802400014024000100240CB
:104D8000064805490160002141608160C160016100
:104D90004161816170470000002C0140EC0500205A
:104DA00010B511480F4901604FF482714160002134
:104DB0008160C160016141614FF40072826128220B
:104DC000C2610162416281620A21C162FFF78AF811
:104DD000002805D0BDE810401E2104A003F0A3B8B0
:104DE00010BD000000300140140200202E2E2F4381
:104DF0006F72652F5372632F7370692E630000000A
:104E000010B511480F4901604FF4827141600021D3
:104E10008160C160016141614FF4007282613022A2
:104E2000C2610162416281620A21C162FFF75AF8E0
:104E3000002805D0BDE81040332104A003F073B86A
:104E400010BD0000005001406C0200202E2E2F43A8
:104E50006F72652F5372632F7370692E63000000A9
:104E600010B58AB0294828490160A7214160002473
:104E7000846042F20F71C1600461FFF7AEFB18B1AC
:104E8000732123A003F04FF80894099408A91F4840
:104E9000FFF7B5FA18B17A211DA003F044F860209D
:104EA000019041F28830029003940594002201A9F8
:104EB0001648FFF725FB18B1832115A003F033F83E
:104EC000042201A91148FFF71BFB18B1882110A08B
:104ED00003F029F8082201A90C48FFF711FB18B1CB
:104EE0008D210BA003F01FF80C2201A90748FFF742
:104EF00007FB18B1922106A003F015F80348FFF74D
:104F0000A7FA0AB010BD000000080040A00400206D
:104F10002E2E2F436F72652F5372632F74696D2E7F
:104F20006300000010B58AB0294828490160A72114
:104F300041600024846042F20F71C1600461FFF798
:104F40004CFB18B1A52123A002F0EDFF08940994B1
:104F500008A91F48FFF753FA18B1AC211DA002F0B1
:104F6000E2FF6020019041F28830029003940594A2
:104F7000002201A91648FFF7C3FA18B1B52115A000
:104F800002F0D1FF042201A91148FFF7B9FA18B1C4
:104F9000BA2110A002F0C7FF082201A90C48FFF7B0
:104FA000AFFA18B1BF210BA002F0BDFF0C2201A97E
:104FB0000748FFF7A5FA18B1C42106A002F0B3FF15
:104FC0000348FFF745FA0AB010BD0000000C00408E
:104FD000DC0400202E2E2F436F72652F5372632F37
:104FE00074696D2E6300000010B590B035483449E7
:104FF000016040F24F1141600024846042F20F7161
:10500000C16004614461FFF7E8FA18B1D9212EA00C
:1050100002F089FF0E940F940EA92A48FFF7EFF9CA
:1050200018B1E02128A002F07EFF6020079041F235
:105030008830089009940A940B940C940D940022E3
:1050400007A92048FFF75CFA18B1EC211EA002F076
:105050006AFF042207A91B48FFF752FA18B1F12191
:1050600019A002F060FF082207A91648FFF748FAC6
:1050700018B1F62114A002F056FF0C2207A911481E
:10508000FFF73EFA18B1FB210FA002F04CFF00948D
:1050900001940294039404944FF4005005900694F4
:1050A00069460848FFF77EF920B140F2071106A0D3
:1050B00002F039FF0348FFF7CBF910B010BD000034
:1050C00000040140180500202E2E2F436F72652F1B
:1050D0005372632F74696D2E6300000010B50E4883
:1050E0000C4901600D49416000218160C1604FF4AD
:1050F000806202610C2242618161C161FFF76EFB37
:10510000002805D0BDE81040472105A002F00BBFE4
:1051100010BD000000100140C4020020A086010064
:105120002E2E2F436F72652F5372632F757361722A
:10513000742E630010B50D480B4901604FF4E13146
:10514000416000218160C16001610C224261816186
:10515000C161FFF743FB002805D0BDE810405A218C
:1051600003A002F0E0BE10BD0014014004030020C3
:105170002E2E2F436F72652F5372632F75736172DA
:10518000742E630010B500220849094801F01DFE85
:105190000849074802F059F80749054801F0DAFBC9
:1051A000BDE81040024802F005B9000030000020C0
:1051B00070060020D401002018000020FEE7704790
:1051C0000907090E002806DA00F00F0000F1E020C0
:1051D00080F8141D704700F1E02080F8001470473B
:1051E0000148FDF797BB0000942000202DE9F84FFF
:1051F00080460E46D8F80070C6EBC60008EB800467
:105200003834D4E90501451AA068A84200D2054601
:10521000E81C4FEA900A07EB461916E0151AA26837
:10522000AA4200D21546E81C4FEA900A98F81000EE
:105230000090ABB2F2B23846E16802F05FFEE0687F
:105240002844E060A0692844A061D9F8180980B218
:10525000504505D9D4E90520904201D2002ADDD17C
:1052600035B90120B040D7F834188143C7F8341855
:105270000020BDE8F88F70470A6842624A6882627F
:10528000D1E902231A43D1E904310B431A43C16A1D
:1052900021F0F7011143C162002070470069C0B2DC
:1052A0007047006800F00300704708B508441430E8
:1052B00000900098006808BD0148FEF7D1BA0000D0
:1052C000EC0500200FB4DDE901121143DDE90323F1
:1052D0001A431143059A1143069A1143426847F64F
:1052E000FF639A430A434260002004B070470321E1
:1052F000016000207047D0F8800070470A68826023
:10530000D1E901231A43D1E903310B431A43C168A0
:105310006FF30B011143C160002070470968C0F8AA
:1053200080100020704710B586B0044601913721E7
:10533000029140210391002104914FF48061059175
:1053400001A92046FFF7DAFF41F2883237212046D3
:1053500000F0A0F906B010BD10B586B004460A4AA8
:1053600011430191292102914021039100210491CF
:10537000510D059101A92046FFF7C0FF204600F01E
:1053800043FA06B010BD00000000108010B586B0D2
:1053900004460191102102914021039100210491C2
:1053A0004FF48061059101A92046FFF7A7FF41F264
:1053B00088321021204600F06DF906B010BD10B5FE
:1053C00086B00446019106210291402103910021FB
:1053D00004914FF48061059101A92046FFF78EFFEB
:1053E00041F288320621204600F054F906B010BD83
:1053F00010B586B0044600210191029103910491F9
:105400004FF48061059101A92046FFF777FF204600
:1054100000F026F906B010BD10B586B004464FF472
:10542000D57101910821029140210391002104913D
:105430004FF48061059101A92046FFF75FFF2046E8
:1054400000F04AFA06B010BD10B586B004460191CE
:105450001221029140210391002104914FF48061B7
:10546000059101A92046FFF749FF41F28832122138
:10547000204600F00FF906B010BD10B586B0044606
:1054800001911121029140210391002104914FF4D7
:105490008061059101A92046FFF730FF41F2883273
:1054A0001121204600F0F6F806B010BD10B586B008
:1054B00004460192072102914021039100210491A9
:1054C0004FF48060059001A92046FFF717FF41F2D5
:1054D00088320721204600F0DDF806B010BD10B577
:1054E00086B004460021019102220292C02203925A
:1054F00004914FF48061059101A92046FFF7FEFE5B
:10550000204600F059F906B010BD10B586B004462B
:10551000019109210291C0210391002104914FF4CE
:105520008061059101A92046FFF7E8FE204600F0C2
:1055300043F906B010BD10B586B0044600210191B4
:10554000332202924022039204911101059101A994
:105550002046FFF7D3FE41F288323321204600F087
:1055600099F806B010BD10B586B0044601910D2122
:10557000029140210391002104914FF48061059133
:1055800001A92046FFF7BAFE41F288320D212046DC
:1055900000F080F806B010BD70B586B006460D4626
:1055A00000230193032402944024039404932301D1
:1055B000059301A93046FFF7A1FE2A460321304694
:1055C00000F044F906B070BD10B586B00446002165
:1055D00001910C2202924022039204911101059143
:1055E00001A92046FFF78AFE034A0C21204600F05D
:1055F00051F806B010BD000000E1F50510B586B009
:105600000446019119210291402103910021049146
:105610004FF48061059101A92046FFF76FFE41F22A
:1056200088321921204600F035F806B010BD10B5BB
:1056300086B0044601911821029140210391002176
:1056400004914FF48061059101A92046FFF756FEB1
:1056500041F288321821204600F01CF806B010BD37
:105660000B494FF4FA520968B1FBF2F141F288326A
:105670005143491E4A1C07D0426B1206F9D540F22D
:10568000FF518163002070474FF0004070470000D9
:105690000800002010B5034645484FF4FA5400684E
:1056A000B0FBF4F05043401E421C09D05A6B12F07C
:1056B000450FF8D0586B400705D50420986310BDFE
:1056C0004FF0004010BD586BC00702D00120986316
:1056D00010BD1846FFF7E2FD884201D0012010BD41
:1056E00040F2FF50986300211846FFF7DEFD314974
:1056F000084201D1002010BD002802DA4FF00070EE
:1057000010BD410001D5402010BD810001D5802091
:1057100010BDC10002D54FF4807010BD010102D54B
:105720004FF4007010BD410102D54FF4806010BDF0
:10573000C10102D54FF4006010BD010202D54FF443
:10574000805010BD410202D54FF4005010BD8102BF
:1057500002D54FF4804010BDC10202D54FF4004085
:1057600010BD410302D54FF4003010BD810302D5B6
:105770004FF4802010BDC10302D54FF4002010BDAE
:10578000010402D54FF4801010BD410402D54FF43E
:10579000001010BD810402D54FF4800010BD000739
:1057A00002D54FF4000010BD4FF4803010BD000052
:1057B0000800002008E0FFFD12494FF4FA52096882
:1057C000B1FBF2F141F288325143491E4A1C0AD022
:1057D000426B12F0450FF8D0416B490706D5042102
:1057E0008163042070474FF000407047416BC90748
:1057F00003D0012181630120704740F2FF51816392
:1058000000207047080000200F494FF4FA52096841
:10581000B1FBF2F141F288325143491E4A1C0AD0D1
:10582000426B12F0450FF8D0416B490706D50421B1
:105830008163042070474FF00040704740F2FF51F1
:1058400081630020704700000800002010B5034667
:1058500020484FF4FA540068B0FBF4F041F2883469
:105860006043401E441C09D05C6B14F0450FF8D017
:10587000586B400705D50420986310BD4FF00040D9
:1058800010BD586BC00702D00120986310BD1846A8
:10589000FFF704FD884201D0012010BD40F2FF5007
:1058A000986300211846FFF700FD10F4604F04D004
:1058B000410406D54FF4005010BD000C10800020AC
:1058C00010BD000402D54FF4805010BD4FF480305D
:1058D00010BD00000800002010494FF4FA5209687A
:1058E000B1FBF2F141F288325143491E4A1C0BD000
:1058F000426B12F0450FF8D0416B4A074FF0400160
:1059000005D58163042070474FF000407047426B1B
:10591000520600D581630020704700000800002077
:1059200010B5064C01202070FBF752F918B9207809
:1059300020F001002070207810BD0000150000202C
:1059400070B5846B0025E06B002800D0E563206C07
:10595000002815D12046FDF773FFA563012184F8C7
:105960003410062801D005280AD12068FFF72CFE44
:10597000A16B0843A063A06B18B12046FDF70CFE95
:1059800070BD2046FDF75AFE70BD70B5846B0025D2
:10599000206C002800D02564E06B002815D120463B
:1059A000FDF74EFFA563012184F83410062801D0CD
:1059B00005280AD12068FFF707FEA16B0843A06302
:1059C000A06B18B12046FDF7E7FD70BD2046FDF73E
:1059D00035FE70BD2DE9F04F89B004460E46FCF748
:1059E000ABFD07460025AA46CDF804A0CDF808A0D7
:1059F00008212068FFF7CAFC00283ED1B4F8500007
:105A000001042068FFF78FFC002836D1401E039068
:105A10004FF00808CDF81080302005904FF00209B3
:105A2000CDF81890CDF81CA00120089003A920689B
:105A3000FFF722FC2068FFF77EFD00281DD10DF145
:105A4000040A40F22A4B0CE0416B890204D5FFF7AF
:105A500052FC4AF825006D1CFCF76EFDC01B401C73
:105A60000ED02068416B11EA0B0FEDD02168496B15
:105A7000090708D5C0F83880082009B0BDE8F08FC4
:105A80004FF00040F9E7416B890703D5C0F8389023
:105A90000220F2E7416B890603D520218163202093
:105AA000EBE740F2FF51816301980199000601F490
:105AB0007F4140EA0120019901F47F0140EA112071
:105AC000019940EA1160706002980299000601F4A1
:105AD0007F4140EA0120029901F47F0140EA112050
